:100000000C9453000C947B000C947B000C947B00AC
:100010000C947B000C947B000C947B000C947B0074
:100020000C947B000C947B000C947B000C947B0064
:100030000C947B000C947B000C947B000C947B0054
:100040000C942C040C947B000C943D020C946F02D5
:100050000C947B000C947B000C947B000C947B0034
:100060000C947B000C947B0001020408102040805B
:1000700001020408102001020408102004040404F2
:100080000404040402020202020203030303030342
:1000900000000000250028002B00000000002400C4
:1000A00027002A009F0211241FBECFEFD8E0DEBF39
:1000B000CDBF11E0A0E0B1E0EAEFFAE002C00590A8
:1000C0000D92A63DB107D9F722E0A6EDB1E001C03F
:1000D0001D92AE38B207E1F710E0C6EAD0E004C0E6
:1000E0002297FE010E947705C43AD107C9F70E9402
:1000F000EB000C947B050C9400001F93CF93DF93CF
:1001000026E040E855E260E070E088EE91E00E9471
:10011000DB01CCEBD1E0199161E0812F0E94190540
:100120004AE050E0612F88EE91E00E94150481E0E2
:10013000C43CD80781F7DF91CF911F910895BF92FA
:10014000CF92DF92EF92FF920F931F93CF93DF93A3
:1001500006ED11E07601C0E0D0E0F701E454FE4F77
:10016000B0808B2D0E94FC04F801EC0FFD1F9183E1
:1001700080838B2D0E94FC044AE050E0BC0188EE95
:1001800091E00E94F0038FEFE81AF80A2296C63039
:10019000D10519F783E0C80ED11C0A5F1F4F81E01B
:1001A000083E1807B9F6DF91CF911F910F91FF908C
:1001B000EF90DF90CF90BF9008950E949F0065E080
:1001C00071E088EE91E00E943B0368EE73E080E00E
:1001D00090E00C9499040E94C1040E947D00C5E245
:1001E000D1E00E94DD002097E1F30E942501F9CFC4
:1001F000FC01818D228D90E0805C9F4F821B9109D4
:100200008F7399270895FC01918D828D981731F095
:10021000828DE80FF11D858D90E008958FEF9FEF9F
:100220000895FC01918D828D981761F0828DDF0118
:10023000A80FB11D5D968C91928D9F5F9F73928FD9
:1002400090E008958FEF9FEF089585E992E0892B64
:1002500049F080E090E0892B29F00E9495028111FD
:100260000C9400000895FC01848DDF01A80FB11DDE
:10027000A35ABF4F2C91848D90E001968F739927DC
:10028000848FA689B7892C93A089B1898C918064C9
:100290008C93938D848D981306C00288F389E02D8A
:1002A00080818F7D80830895CF93DF93EC01888DCB
:1002B0008823C9F0EA89FB89808185FD05C0A8896A
:1002C000B9898C9186FD0FC00FB607FCF5CF8081F0
:1002D00085FFF2CFA889B9898C9185FFEDCFCE013A
:1002E0000E943301E7CFDF91CF910895CF92DF9243
:1002F000FF920F931F93CF93DF931F92CDB7DEB77B
:100300006C01DC015B969C915B975C968C915C9791
:10031000981307C05096ED91FC915197808185FD0F
:1003200032C0F601038D10E00F5F1F4F0F731127CE
:10033000F02EF601848DF81211C00FB607FCF9CF2C
:10034000D6015096ED91FC915197808185FFF1CFB8
:10035000C60169830E9433016981EBCF838DE80F69
:10036000F11DE35AFF4F6083D6015B960C935B97B8
:100370005296ED91FC91539780818062808381E059
:1003800058968C930DC0D6015696ED91FC915797D7
:1003900060835096ED91FC915197808180648083B9
:1003A00081E090E00F90DF91CF911F910F91FF902E
:1003B000DF90CF900895BF92CF92DF92EF92FF929D
:1003C000CF93DF93EC016A017B01B22EE889F989B2
:1003D00082E08083411581EE580761057105A1F027
:1003E00060E079E08DE390E0A70196010E9453055B
:1003F000215031094109510956954795379527955F
:10040000211580E1380798F0E889F989108260E8C1
:1004100074E88EE190E0A70196010E9453052150F7
:100420003109410951095695479537952795EC852E
:10043000FD853083EE85FF852083188EEC89FD894C
:10044000B082EA89FB89808180618083EA89FB89A7
:10045000808188608083EA89FB89808180688083CD
:10046000EA89FB8980818F7D8083DF91CF91FF9026
:10047000EF90DF90CF90BF9008951F920F920FB62C
:100480000F9211242F938F939F93EF93FF93E091FB
:10049000F801F091F9018081E091FE01F091FF01F6
:1004A00082FD12C09081809101028F5F8F73209135
:1004B0000202821751F0E0910102F0E0E851FE4F94
:1004C000958F8093010201C08081FF91EF919F91F0
:1004D0008F912F910F900FBE0F901F9018951F9224
:1004E0000F920FB60F9211242F933F934F935F9368
:1004F0006F937F938F939F93AF93BF93EF93FF93EC
:1005000088EE91E00E943301FF91EF91BF91AF918E
:100510009F918F917F916F915F914F913F912F911B
:100520000F900FBE0F901F90189588EE91E00E94DB
:10053000F80021E0892B09F420E0822F0895109221
:10054000EB011092EA0188EE93E0A0E0B0E0809326
:10055000EC019093ED01A093EE01B093EF0189ECD3
:1005600091E09093E9018093E80185EC90E090930D
:10057000F5018093F40184EC90E09093F70180936F
:10058000F60180EC90E09093F9018093F80181EC02
:1005900090E09093FB018093FA0182EC90E09093BD
:1005A000FD018093FC0186EC90E09093FF01809325
:1005B000FE011092010210920202109203021092A8
:1005C00004020895CF92DF92EF92FF920F931F9350
:1005D000CF93DF936C017A01EB01E60EF71E00E08A
:1005E00010E0CE15DF0561F06991D601ED91FC9127
:1005F0000190F081E02DC6010995080F191FF1CF78
:10060000C801DF91CF911F910F91FF90EF90DF9084
:10061000CF9008956115710581F0DB010D900020E8
:10062000E9F7AD0141505109461B570BDC01ED9133
:10063000FC910280F381E02D099480E090E0089520
:10064000DC01ED91FC910190F081E02D09940F9374
:100650001F93CF93DF93EC016DE00E9420038C0188
:100660006AE0CE010E942003800F911FDF91CF919D
:100670001F910F9108950F931F93CF93DF93EC0178
:100680000E940A038C01CE010E942703800F911F54
:10069000DF91CF911F910F9108958F929F92AF920A
:1006A000BF92CF92DF92EF92FF920F931F93CF935F
:1006B000DF93CDB7DEB7A1970FB6F894DEBF0FBEBC
:1006C000CDBF7C01C42EE52FCB01D22E19A221E093
:1006D0002D1510F02AE0D22E8E010F5D1F4F8D2CAC
:1006E000912CA12CB12C6C2D7E2FA50194010E9480
:1006F00053058C2DD29E80191124015011098A3086
:1007000014F4805D01C0895CF801808321153105F6
:100710004105510521F0C22EE32FCA01E4CFB801F3
:10072000C7010E940A03A1960FB6F894DEBF0FBE60
:10073000CDBFDF91CF911F910F91FF90EF90DF9090
:10074000CF90BF90AF909F908F900895CF92DF92FF
:10075000EF92FF920F931F93CF93DF93EC016A0107
:100760007B012115310579F4E881F9810190F0814F
:10077000E02D642FDF91CF911F910F91FF90EF90AB
:10078000DF90CF9009942A303105E9F477FF1AC041
:100790006DE20E9420038C0144275527BA014C19B1
:1007A0005D096E097F092AE0CE010E944D03800F8A
:1007B000911FDF91CF911F910F91FF90EF90DF90EC
:1007C000CF9008952AE0B701A601CE01DF91CF9125
:1007D0001F910F91FF90EF90DF90CF900C944D03FD
:1007E0000F931F93CF93DF93EC019A01AB01662720
:1007F00057FD6095762F0E94A6038C01CE010E94C2
:100800002703800F911FDF91CF911F910F910895C2
:100810002115310541F4DC01ED91FC910190F0814D
:10082000E02D642F09940C944D030F931F93CF93E5
:10083000DF93EC019A01462F50E060E070E00E94E7
:1008400008048C01CE010E942703800F911FDF91C5
:10085000CF911F910F9108951F920F920FB60F9293
:1008600011242F933F938F939F93AF93BF938091C6
:10087000860290918702A0918802B09189023091FE
:10088000850223E0230F2D3720F40196A11DB11D11
:1008900005C026E8230F0296A11DB11D20938502F5
:1008A0008093860290938702A0938802B093890276
:1008B00080918A0290918B02A0918C02B0918D025E
:1008C0000196A11DB11D80938A0290938B02A09383
:1008D0008C02B0938D02BF91AF919F918F913F9108
:1008E0002F910F900FBE0F901F9018953FB7F8945F
:1008F00080918A0290918B02A0918C02B0918D021E
:1009000026B5A89B05C02F3F19F00196A11DB11D6A
:100910003FBF6627782F892F9A2F620F711D811D87
:10092000911D42E0660F771F881F991F4A95D1F7E6
:100930000895CF92DF92EF92FF92CF93DF936B01F6
:100940007C010E947604EB01C114D104E104F1049E
:1009500089F00E9452050E9476046C1B7D0B683E54
:10096000734090F381E0C81AD108E108F108C8513A
:10097000DC4FEACFDF91CF91FF90EF90DF90CF90E7
:100980000895789484B5826084BD84B5816084BD07
:1009900085B5826085BD85B5816085BDEEE6F0E0F8
:1009A000808181608083E1E8F0E010828081826054
:1009B0008083808181608083E0E8F0E080818160D5
:1009C0008083E1EBF0E0808184608083E0EBF0E005
:1009D000808181608083EAE7F0E0808184608083A9
:1009E0008081826080838081816080838081806853
:1009F00080831092C10008958E3008F08E50877069
:100A00002091040190E4299F90011124822B80936E
:100A10007C0080917A00806480937A0080917A00D3
:100A200086FDFCCF809178002091790090E0922B98
:100A30000895CF93DF9390E0FC01E859FF4F249194
:100A4000FC01E458FF4F8491882349F190E0880F1E
:100A5000991FFC01E656FF4FA591B49180579F4F17
:100A6000FC01C591D4919FB7611108C0F8948C9195
:100A7000209582238C93888182230AC0623051F4AE
:100A8000F8948C91322F309583238C938881822B1C
:100A9000888304C0F8948C91822B8C939FBFDF9144
:100AA000CF9108950895A1E21A2EAA1BBB1BFD0148
:100AB0000DC0AA1FBB1FEE1FFF1FA217B307E4073D
:100AC000F50720F0A21BB30BE40BF50B661F771F95
:100AD000881F991F1A9469F7609570958095909575
:100AE0009B01AC01BD01CF010895EE0FFF1F0590E2
:0A0AF000F491E02D0994F894FFCF73
:100AFA0001000000012D2D2D2D2D2D2D2D2D2D2DFB
:100B0A002D2D2D2D2D2D2D2D2D00686967686573CE
:100B1A00743A20002C00203A2000583A20002C2059
:100B2A0000593A200056616C75653A2000416E61A1
:100B3A006C6F672072656164696E67203D2000569C
:100B4A006F6C746167652072656164696E6720699C
:100B5A006E206D56203D20004E6F207072657373B3
:100B6A007572650046535220726573697374616EBB
:100B7A00636520696E206F686D73203D2000436FA6
:100B8A006E64756374616E636520696E206D696356
:100B9A00726F4D686F733A2000466F726365206901
:100BAA006E204E6577746F6E733A20000E0F101127
:100BBA0012130A0B0C000000007601E202F8001181
:060BCA00010301540100CB
:00000001FF
